:100000000C9472000C947E000C947E000C947E0084
:100010000C947E000C947E000C947E000C947E0068
:100020000C947E000C947E000C947E000C947E0058
:100030000C947E000C947E000C947E000C947E0048
:100040000C947E000C947E000C947E000C947E0038
:100050000C947E000C947E000C947E000C947E0028
:100060000C947E000C947E000C947E000C947E0018
:100070000C947E000C947E000C947E000C947E0008
:100080000C947E000C947E000C947E000C947E00F8
:100090000C947E000C947E000C947E000C947E00E8
:1000A0000C947E000C947E000C947E000C947E00D8
:1000B0000C947E000C947E000C947E000C947E00C8
:1000C0000C947E000C947E000C947E000C947E00B8
:1000D0000C947E000C947E000C947E000C947E00A8
:1000E0000C947E0011241FBECFEFD1E2DEBFCDBF46
:1000F00000E00CBF0E9480000C940D010C940000E5
:10010000CF93DF93CDB7DEB70E9491000E94B60077
:1001100088E893E10E94CE0085E290E0FC01108225
:10012000FFCFCF93DF93CDB7DEB784E290E02FEF20
:10013000FC01208385E290E02FEFFC01208387E221
:1001400090E02FEFFC01208388E290E02FEFFC018C
:1001500020838AE290E02FEFFC0120838BE290E085
:100160002FEFFC012083DF91CF910895CF93DF9390
:10017000CDB7DEB786E490E0FC01108287E490E022
:1001800023E8FC01208384E490E0FC01108285E4F4
:1001900090E0FC011082DF91CF910895CF93DF931F
:1001A00000D01F92CDB7DEB79C838B831A82198251
:1001B00022C085E490E022E0FC012083000085E37A
:1001C00090E0FC018081882F90E082709927009751
:1001D000B1F385E390E025E330E0F901208122606E
:1001E000FC01208386E490E0FC01108289819A81E1
:1001F00001969A83898329813A818B819C81281772
:100200003907BCF285E490E0FC0110820F900F905A
:0E0210000F900F90DF91CF910895F894FFCFDB
:00000001FF
