:100000000C9472000C947E000C947E000C947E0084
:100010000C947E000C947E000C947E000C947E0068
:100020000C947E000C947E000C947E000C947E0058
:100030000C947E000C947E000C947E000C947E0048
:100040000C947E000C947E000C947E000C947E0038
:100050000C947E000C947E000C947E000C947E0028
:100060000C947E000C947E000C947E000C947E0018
:100070000C947E000C947E000C947E000C947E0008
:100080000C947E000C947E000C947E000C947E00F8
:100090000C947E000C947E000C947E000C947E00E8
:1000A0000C947E000C947E000C947E000C947E00D8
:1000B0000C947E000C947E000C947E000C947E00C8
:1000C0000C947E000C947E000C947E000C947E00B8
:1000D0000C947E000C947E000C947E000C947E00A8
:1000E0000C947E0011241FBECFEFD1E2DEBFCDBF46
:1000F00000E00CBF0E9480000C94CA000C94000029
:10010000CF93DF93CDB7DEB70E9492000E94B2007A
:1001100085E290E026E230E0F90120812071FC01C7
:100120002083F6CFCF93DF93CDB7DEB784E290E0A4
:100130002FEFFC01208385E290E02FEFFC0120836C
:1001400087E290E02FEFFC0120838AE290E02FEF1E
:10015000FC0120838BE290E02FEFFC012083DF91F4
:10016000CF910895CF93DF93CDB7DEB786E490E0CB
:10017000FC01108287E490E023E8FC01208384E402
:1001800090E0FC01108285E490E0FC011082DF9198
:08019000CF910895F894FFCF10
:00000001FF
